{
  "_format": "hh-sol-artifact-1",
  "contractName": "CartonNFT",
  "sourceName": "contracts/CartonNFT.sol",
  "abi": [
    {
      "inputs": [
        {
          "internalType": "address",
          "name": "initialOwner",
          "type": "address"
        }
      ],
      "stateMutability": "nonpayable",
      "type": "constructor"
    },
    {
      "inputs": [
        {
          "internalType": "address",
          "name": "sender",
          "type": "address"
        },
        {
          "internalType": "uint256",
          "name": "tokenId",
          "type": "uint256"
        },
        {
          "internalType": "address",
          "name": "owner",
          "type": "address"
        }
      ],
      "name": "ERC721IncorrectOwner",
      "type": "error"
    },
    {
      "inputs": [
        {
          "internalType": "address",
          "name": "operator",
          "type": "address"
        },
        {
          "internalType": "uint256",
          "name": "tokenId",
          "type": "uint256"
        }
      ],
      "name": "ERC721InsufficientApproval",
      "type": "error"
    },
    {
      "inputs": [
        {
          "internalType": "address",
          "name": "approver",
          "type": "address"
        }
      ],
      "name": "ERC721InvalidApprover",
      "type": "error"
    },
    {
      "inputs": [
        {
          "internalType": "address",
          "name": "operator",
          "type": "address"
        }
      ],
      "name": "ERC721InvalidOperator",
      "type": "error"
    },
    {
      "inputs": [
        {
          "internalType": "address",
          "name": "owner",
          "type": "address"
        }
      ],
      "name": "ERC721InvalidOwner",
      "type": "error"
    },
    {
      "inputs": [
        {
          "internalType": "address",
          "name": "receiver",
          "type": "address"
        }
      ],
      "name": "ERC721InvalidReceiver",
      "type": "error"
    },
    {
      "inputs": [
        {
          "internalType": "address",
          "name": "sender",
          "type": "address"
        }
      ],
      "name": "ERC721InvalidSender",
      "type": "error"
    },
    {
      "inputs": [
        {
          "internalType": "uint256",
          "name": "tokenId",
          "type": "uint256"
        }
      ],
      "name": "ERC721NonexistentToken",
      "type": "error"
    },
    {
      "inputs": [
        {
          "internalType": "address",
          "name": "owner",
          "type": "address"
        }
      ],
      "name": "OwnableInvalidOwner",
      "type": "error"
    },
    {
      "inputs": [
        {
          "internalType": "address",
          "name": "account",
          "type": "address"
        }
      ],
      "name": "OwnableUnauthorizedAccount",
      "type": "error"
    },
    {
      "anonymous": false,
      "inputs": [
        {
          "indexed": true,
          "internalType": "address",
          "name": "owner",
          "type": "address"
        },
        {
          "indexed": true,
          "internalType": "address",
          "name": "approved",
          "type": "address"
        },
        {
          "indexed": true,
          "internalType": "uint256",
          "name": "tokenId",
          "type": "uint256"
        }
      ],
      "name": "Approval",
      "type": "event"
    },
    {
      "anonymous": false,
      "inputs": [
        {
          "indexed": true,
          "internalType": "address",
          "name": "owner",
          "type": "address"
        },
        {
          "indexed": true,
          "internalType": "address",
          "name": "operator",
          "type": "address"
        },
        {
          "indexed": false,
          "internalType": "bool",
          "name": "approved",
          "type": "bool"
        }
      ],
      "name": "ApprovalForAll",
      "type": "event"
    },
    {
      "anonymous": false,
      "inputs": [
        {
          "indexed": true,
          "internalType": "address",
          "name": "previousOwner",
          "type": "address"
        },
        {
          "indexed": true,
          "internalType": "address",
          "name": "newOwner",
          "type": "address"
        }
      ],
      "name": "OwnershipTransferred",
      "type": "event"
    },
    {
      "anonymous": false,
      "inputs": [
        {
          "indexed": true,
          "internalType": "address",
          "name": "from",
          "type": "address"
        },
        {
          "indexed": true,
          "internalType": "address",
          "name": "to",
          "type": "address"
        },
        {
          "indexed": true,
          "internalType": "uint256",
          "name": "tokenId",
          "type": "uint256"
        }
      ],
      "name": "Transfer",
      "type": "event"
    },
    {
      "inputs": [
        {
          "internalType": "address",
          "name": "to",
          "type": "address"
        },
        {
          "internalType": "uint256",
          "name": "tokenId",
          "type": "uint256"
        }
      ],
      "name": "approve",
      "outputs": [],
      "stateMutability": "nonpayable",
      "type": "function"
    },
    {
      "inputs": [
        {
          "internalType": "address",
          "name": "owner",
          "type": "address"
        }
      ],
      "name": "balanceOf",
      "outputs": [
        {
          "internalType": "uint256",
          "name": "",
          "type": "uint256"
        }
      ],
      "stateMutability": "view",
      "type": "function"
    },
    {
      "inputs": [
        {
          "internalType": "uint256",
          "name": "tokenId",
          "type": "uint256"
        }
      ],
      "name": "getApproved",
      "outputs": [
        {
          "internalType": "address",
          "name": "",
          "type": "address"
        }
      ],
      "stateMutability": "view",
      "type": "function"
    },
    {
      "inputs": [
        {
          "internalType": "uint256",
          "name": "tokenId",
          "type": "uint256"
        }
      ],
      "name": "getCartonAttributes",
      "outputs": [
        {
          "internalType": "uint256",
          "name": "",
          "type": "uint256"
        },
        {
          "internalType": "string",
          "name": "",
          "type": "string"
        },
        {
          "internalType": "uint256",
          "name": "",
          "type": "uint256"
        },
        {
          "internalType": "string",
          "name": "",
          "type": "string"
        },
        {
          "internalType": "string",
          "name": "",
          "type": "string"
        },
        {
          "internalType": "string",
          "name": "",
          "type": "string"
        },
        {
          "internalType": "int256",
          "name": "",
          "type": "int256"
        }
      ],
      "stateMutability": "view",
      "type": "function"
    },
    {
      "inputs": [
        {
          "internalType": "address",
          "name": "owner",
          "type": "address"
        },
        {
          "internalType": "address",
          "name": "operator",
          "type": "address"
        }
      ],
      "name": "isApprovedForAll",
      "outputs": [
        {
          "internalType": "bool",
          "name": "",
          "type": "bool"
        }
      ],
      "stateMutability": "view",
      "type": "function"
    },
    {
      "inputs": [],
      "name": "launch",
      "outputs": [],
      "stateMutability": "nonpayable",
      "type": "function"
    },
    {
      "inputs": [
        {
          "internalType": "address",
          "name": "to",
          "type": "address"
        },
        {
          "internalType": "string",
          "name": "name",
          "type": "string"
        },
        {
          "internalType": "uint256",
          "name": "weight",
          "type": "uint256"
        },
        {
          "internalType": "string",
          "name": "src",
          "type": "string"
        },
        {
          "internalType": "string",
          "name": "dest",
          "type": "string"
        },
        {
          "internalType": "string",
          "name": "currLoc",
          "type": "string"
        }
      ],
      "name": "mint",
      "outputs": [
        {
          "internalType": "uint256",
          "name": "",
          "type": "uint256"
        }
      ],
      "stateMutability": "nonpayable",
      "type": "function"
    },
    {
      "inputs": [],
      "name": "name",
      "outputs": [
        {
          "internalType": "string",
          "name": "",
          "type": "string"
        }
      ],
      "stateMutability": "view",
      "type": "function"
    },
    {
      "inputs": [],
      "name": "owner",
      "outputs": [
        {
          "internalType": "address",
          "name": "",
          "type": "address"
        }
      ],
      "stateMutability": "view",
      "type": "function"
    },
    {
      "inputs": [
        {
          "internalType": "uint256",
          "name": "tokenId",
          "type": "uint256"
        }
      ],
      "name": "ownerOf",
      "outputs": [
        {
          "internalType": "address",
          "name": "",
          "type": "address"
        }
      ],
      "stateMutability": "view",
      "type": "function"
    },
    {
      "inputs": [],
      "name": "renounceOwnership",
      "outputs": [],
      "stateMutability": "nonpayable",
      "type": "function"
    },
    {
      "inputs": [
        {
          "internalType": "address",
          "name": "from",
          "type": "address"
        },
        {
          "internalType": "address",
          "name": "to",
          "type": "address"
        },
        {
          "internalType": "uint256",
          "name": "tokenId",
          "type": "uint256"
        }
      ],
      "name": "safeTransferFrom",
      "outputs": [],
      "stateMutability": "nonpayable",
      "type": "function"
    },
    {
      "inputs": [
        {
          "internalType": "address",
          "name": "from",
          "type": "address"
        },
        {
          "internalType": "address",
          "name": "to",
          "type": "address"
        },
        {
          "internalType": "uint256",
          "name": "tokenId",
          "type": "uint256"
        },
        {
          "internalType": "bytes",
          "name": "data",
          "type": "bytes"
        }
      ],
      "name": "safeTransferFrom",
      "outputs": [],
      "stateMutability": "nonpayable",
      "type": "function"
    },
    {
      "inputs": [
        {
          "internalType": "address",
          "name": "operator",
          "type": "address"
        },
        {
          "internalType": "bool",
          "name": "approved",
          "type": "bool"
        }
      ],
      "name": "setApprovalForAll",
      "outputs": [],
      "stateMutability": "nonpayable",
      "type": "function"
    },
    {
      "inputs": [
        {
          "internalType": "bytes4",
          "name": "interfaceId",
          "type": "bytes4"
        }
      ],
      "name": "supportsInterface",
      "outputs": [
        {
          "internalType": "bool",
          "name": "",
          "type": "bool"
        }
      ],
      "stateMutability": "view",
      "type": "function"
    },
    {
      "inputs": [],
      "name": "symbol",
      "outputs": [
        {
          "internalType": "string",
          "name": "",
          "type": "string"
        }
      ],
      "stateMutability": "view",
      "type": "function"
    },
    {
      "inputs": [
        {
          "internalType": "uint256",
          "name": "tokenId",
          "type": "uint256"
        }
      ],
      "name": "tokenURI",
      "outputs": [
        {
          "internalType": "string",
          "name": "",
          "type": "string"
        }
      ],
      "stateMutability": "view",
      "type": "function"
    },
    {
      "inputs": [
        {
          "internalType": "address",
          "name": "from",
          "type": "address"
        },
        {
          "internalType": "address",
          "name": "to",
          "type": "address"
        },
        {
          "internalType": "uint256",
          "name": "tokenId",
          "type": "uint256"
        }
      ],
      "name": "transferFrom",
      "outputs": [],
      "stateMutability": "nonpayable",
      "type": "function"
    },
    {
      "inputs": [
        {
          "internalType": "address",
          "name": "newOwner",
          "type": "address"
        }
      ],
      "name": "transferOwnership",
      "outputs": [],
      "stateMutability": "nonpayable",
      "type": "function"
    }
  ],
  "bytecode": "0x60806040523480156200001157600080fd5b5060405162001c5538038062001c55833981016040819052620000349162000159565b806040518060400160405280600981526020016810d85c9d1bdb93919560ba1b8152506040518060400160405280600481526020016310d3919560e21b815250816000908162000085919062000232565b50600162000094828262000232565b5050506001600160a01b038116620000c657604051631e4fbdf760e01b81526000600482015260240160405180910390fd5b620000d18162000107565b506040805180820190915260088082526734b3b734ba34b7b760c11b602083015290620000ff908262000232565b5050620002fe565b600680546001600160a01b038381166001600160a01b0319831681179093556040519116919082907f8be0079c531659141344cd1fd0a4f28419497f9722a3daafe3b4186f6b6457e090600090a35050565b6000602082840312156200016c57600080fd5b81516001600160a01b03811681146200018457600080fd5b9392505050565b634e487b7160e01b600052604160045260246000fd5b600181811c90821680620001b657607f821691505b602082108103620001d757634e487b7160e01b600052602260045260246000fd5b50919050565b601f8211156200022d576000816000526020600020601f850160051c81016020861015620002085750805b601f850160051c820191505b81811015620002295782815560010162000214565b5050505b505050565b81516001600160401b038111156200024e576200024e6200018b565b62000266816200025f8454620001a1565b84620001dd565b602080601f8311600181146200029e5760008415620002855750858301515b600019600386901b1c1916600185901b17855562000229565b600085815260208120601f198616915b82811015620002cf57888601518255948401946001909101908401620002ae565b5085821015620002ee5787850151600019600388901b60f8161c191681555b5050505050600190811b01905550565b611947806200030e6000396000f3fe608060405234801561001057600080fd5b50600436106101515760003560e01c8063715018a6116100cd578063c87b56dd11610081578063eb5b922311610066578063eb5b9223146102cb578063ec5395d4146102de578063f2fde38b1461030457600080fd5b8063c87b56dd1461027c578063e985e9c51461028f57600080fd5b806395d89b41116100b257806395d89b411461024e578063a22cb46514610256578063b88d4fde1461026957600080fd5b8063715018a6146102355780638da5cb5b1461023d57600080fd5b8063095ea7b31161012457806342842e0e1161010957806342842e0e146101ee5780636352211e1461020157806370a082311461021457600080fd5b8063095ea7b3146101c857806323b872dd146101db57600080fd5b806301339c211461015657806301ffc9a71461016057806306fdde0314610188578063081812fc1461019d575b600080fd5b61015e610317565b005b61017361016e366004611317565b61035a565b60405190151581526020015b60405180910390f35b6101906103f7565b60405161017f9190611384565b6101b06101ab366004611397565b610489565b6040516001600160a01b03909116815260200161017f565b61015e6101d63660046113cc565b6104b2565b61015e6101e93660046113f6565b6104c1565b61015e6101fc3660046113f6565b61056a565b6101b061020f366004611397565b61058a565b610227610222366004611432565b610595565b60405190815260200161017f565b61015e6105f6565b6006546001600160a01b03166101b0565b61019061060a565b61015e61026436600461144d565b610619565b61015e610277366004611515565b610624565b61019061028a366004611397565b61063b565b61017361029d366004611591565b6001600160a01b03918216600090815260056020908152604080832093909416825291909152205460ff1690565b6102276102d93660046115e4565b6106b0565b6102f16102ec366004611397565b610791565b60405161017f97969594939291906116aa565b61015e610312366004611432565b610a5c565b6040805180820190915260088082527f6c6966742d6f666600000000000000000000000000000000000000000000000060208301529061035790826117a2565b50565b60006001600160e01b031982167f80ac58cd0000000000000000000000000000000000000000000000000000000014806103bd57506001600160e01b031982167f5b5e139f00000000000000000000000000000000000000000000000000000000145b806103f157507f01ffc9a7000000000000000000000000000000000000000000000000000000006001600160e01b03198316145b92915050565b60606000805461040690611718565b80601f016020809104026020016040519081016040528092919081815260200182805461043290611718565b801561047f5780601f106104545761010080835404028352916020019161047f565b820191906000526020600020905b81548152906001019060200180831161046257829003601f168201915b5050505050905090565b600061049482610ab0565b506000828152600460205260409020546001600160a01b03166103f1565b6104bd828233610ae9565b5050565b6001600160a01b0382166104f057604051633250574960e11b8152600060048201526024015b60405180910390fd5b60006104fd838333610af6565b9050836001600160a01b0316816001600160a01b031614610564576040517f64283d7b0000000000000000000000000000000000000000000000000000000081526001600160a01b03808616600483015260248201849052821660448201526064016104e7565b50505050565b61058583838360405180602001604052806000815250610624565b505050565b60006103f182610ab0565b60006001600160a01b0382166105da576040517f89c62b64000000000000000000000000000000000000000000000000000000008152600060048201526024016104e7565b506001600160a01b031660009081526003602052604090205490565b6105fe610bfc565b6106086000610c42565b565b60606001805461040690611718565b6104bd338383610ca1565b61062f8484846104c1565b61056484848484610d59565b606061064682610ab0565b50600061065e60408051602081019091526000815290565b9050600081511161067e57604051806020016040528060008152506106a9565b8061068884610e82565b604051602001610699929190611862565b6040516020818303038152906040525b9392505050565b600780546000918190836106c383611891565b91905055506106d28882610f22565b6040805160e08101825282815260208082018a81528284018a9052606083018990526080830188905260a0830187905260001960c084015260008581526009909252929020815181559151909190600182019061072f90826117a2565b50604082015160028201556060820151600382019061074e90826117a2565b506080820151600482019061076390826117a2565b5060a0820151600582019061077890826117a2565b5060c09190910151600690910155979650505050505050565b6000606060006060806060600080600960008a81526020019081526020016000206040518060e0016040529081600082015481526020016001820180546107d790611718565b80601f016020809104026020016040519081016040528092919081815260200182805461080390611718565b80156108505780601f1061082557610100808354040283529160200191610850565b820191906000526020600020905b81548152906001019060200180831161083357829003601f168201915b505050505081526020016002820154815260200160038201805461087390611718565b80601f016020809104026020016040519081016040528092919081815260200182805461089f90611718565b80156108ec5780601f106108c1576101008083540402835291602001916108ec565b820191906000526020600020905b8154815290600101906020018083116108cf57829003601f168201915b5050505050815260200160048201805461090590611718565b80601f016020809104026020016040519081016040528092919081815260200182805461093190611718565b801561097e5780601f106109535761010080835404028352916020019161097e565b820191906000526020600020905b81548152906001019060200180831161096157829003601f168201915b5050505050815260200160058201805461099790611718565b80601f01602080910402602001604051908101604052809291908181526020018280546109c390611718565b8015610a105780601f106109e557610100808354040283529160200191610a10565b820191906000526020600020905b8154815290600101906020018083116109f357829003601f168201915b50505091835250506006919091015460209182015281519082015160408301516060840151608085015160a086015160c090960151949f939e50919c509a509850919650945092505050565b610a64610bfc565b6001600160a01b038116610aa7576040517f1e4fbdf7000000000000000000000000000000000000000000000000000000008152600060048201526024016104e7565b61035781610c42565b6000818152600260205260408120546001600160a01b0316806103f157604051637e27328960e01b8152600481018490526024016104e7565b6105858383836001610f3c565b6000828152600260205260408120546001600160a01b0390811690831615610b2357610b23818486611087565b6001600160a01b03811615610b6157610b40600085600080610f3c565b6001600160a01b038116600090815260036020526040902080546000190190555b6001600160a01b03851615610b90576001600160a01b0385166000908152600360205260409020805460010190555b600084815260026020526040808220805473ffffffffffffffffffffffffffffffffffffffff19166001600160a01b0389811691821790925591518793918516917fddf252ad1be2c89b69c2b068fc378daa952ba7f163c4a11628f55a4df523b3ef91a4949350505050565b6006546001600160a01b03163314610608576040517f118cdaa70000000000000000000000000000000000000000000000000000000081523360048201526024016104e7565b600680546001600160a01b0383811673ffffffffffffffffffffffffffffffffffffffff19831681179093556040519116919082907f8be0079c531659141344cd1fd0a4f28419497f9722a3daafe3b4186f6b6457e090600090a35050565b6001600160a01b038216610cec576040517f5b08ba180000000000000000000000000000000000000000000000000000000081526001600160a01b03831660048201526024016104e7565b6001600160a01b03838116600081815260056020908152604080832094871680845294825291829020805460ff191686151590811790915591519182527f17307eab39ab6107e8899845ad3d59bd9653f200f220920489ca2b5937696c31910160405180910390a3505050565b6001600160a01b0383163b1561056457604051630a85bd0160e11b81526001600160a01b0384169063150b7a0290610d9b9033908890879087906004016118b8565b6020604051808303816000875af1925050508015610dd6575060408051601f3d908101601f19168201909252610dd3918101906118f4565b60015b610e3f573d808015610e04576040519150601f19603f3d011682016040523d82523d6000602084013e610e09565b606091505b508051600003610e3757604051633250574960e11b81526001600160a01b03851660048201526024016104e7565b805181602001fd5b6001600160e01b03198116630a85bd0160e11b14610e7b57604051633250574960e11b81526001600160a01b03851660048201526024016104e7565b5050505050565b60606000610e8f83611104565b600101905060008167ffffffffffffffff811115610eaf57610eaf611489565b6040519080825280601f01601f191660200182016040528015610ed9576020820181803683370190505b5090508181016020015b600019017f3031323334353637383961626364656600000000000000000000000000000000600a86061a8153600a8504945084610ee357509392505050565b6104bd8282604051806020016040528060008152506111e6565b8080610f5057506001600160a01b03821615155b1561104a576000610f6084610ab0565b90506001600160a01b03831615801590610f8c5750826001600160a01b0316816001600160a01b031614155b8015610fbe57506001600160a01b0380821660009081526005602090815260408083209387168352929052205460ff16155b15611000576040517fa9fbf51f0000000000000000000000000000000000000000000000000000000081526001600160a01b03841660048201526024016104e7565b81156110485783856001600160a01b0316826001600160a01b03167f8c5be1e5ebec7d5bd14f71427d1e84f3dd0314c0f7b2291e5b200ac8c7c3b92560405160405180910390a45b505b50506000908152600460205260409020805473ffffffffffffffffffffffffffffffffffffffff19166001600160a01b0392909216919091179055565b6110928383836111fd565b610585576001600160a01b0383166110c057604051637e27328960e01b8152600481018290526024016104e7565b6040517f177e802f0000000000000000000000000000000000000000000000000000000081526001600160a01b0383166004820152602481018290526044016104e7565b6000807a184f03e93ff9f4daa797ed6e38ed64bf6a1f010000000000000000831061114d577a184f03e93ff9f4daa797ed6e38ed64bf6a1f010000000000000000830492506040015b6d04ee2d6d415b85acef81000000008310611179576d04ee2d6d415b85acef8100000000830492506020015b662386f26fc10000831061119757662386f26fc10000830492506010015b6305f5e10083106111af576305f5e100830492506008015b61271083106111c357612710830492506004015b606483106111d5576064830492506002015b600a83106103f15760010192915050565b6111f08383611283565b6105856000848484610d59565b60006001600160a01b0383161580159061127b5750826001600160a01b0316846001600160a01b0316148061125757506001600160a01b0380851660009081526005602090815260408083209387168352929052205460ff165b8061127b57506000828152600460205260409020546001600160a01b038481169116145b949350505050565b6001600160a01b0382166112ad57604051633250574960e11b8152600060048201526024016104e7565b60006112bb83836000610af6565b90506001600160a01b03811615610585576040517f73c6ac6e000000000000000000000000000000000000000000000000000000008152600060048201526024016104e7565b6001600160e01b03198116811461035757600080fd5b60006020828403121561132957600080fd5b81356106a981611301565b60005b8381101561134f578181015183820152602001611337565b50506000910152565b60008151808452611370816020860160208601611334565b601f01601f19169290920160200192915050565b6020815260006106a96020830184611358565b6000602082840312156113a957600080fd5b5035919050565b80356001600160a01b03811681146113c757600080fd5b919050565b600080604083850312156113df57600080fd5b6113e8836113b0565b946020939093013593505050565b60008060006060848603121561140b57600080fd5b611414846113b0565b9250611422602085016113b0565b9150604084013590509250925092565b60006020828403121561144457600080fd5b6106a9826113b0565b6000806040838503121561146057600080fd5b611469836113b0565b91506020830135801515811461147e57600080fd5b809150509250929050565b634e487b7160e01b600052604160045260246000fd5b600067ffffffffffffffff808411156114ba576114ba611489565b604051601f8501601f19908116603f011681019082821181831017156114e2576114e2611489565b816040528093508581528686860111156114fb57600080fd5b858560208301376000602087830101525050509392505050565b6000806000806080858703121561152b57600080fd5b611534856113b0565b9350611542602086016113b0565b925060408501359150606085013567ffffffffffffffff81111561156557600080fd5b8501601f8101871361157657600080fd5b6115858782356020840161149f565b91505092959194509250565b600080604083850312156115a457600080fd5b6115ad836113b0565b91506115bb602084016113b0565b90509250929050565b600082601f8301126115d557600080fd5b6106a98383356020850161149f565b60008060008060008060c087890312156115fd57600080fd5b611606876113b0565b9550602087013567ffffffffffffffff8082111561162357600080fd5b61162f8a838b016115c4565b965060408901359550606089013591508082111561164c57600080fd5b6116588a838b016115c4565b9450608089013591508082111561166e57600080fd5b61167a8a838b016115c4565b935060a089013591508082111561169057600080fd5b5061169d89828a016115c4565b9150509295509295509295565b87815260e0602082015260006116c360e0830189611358565b87604084015282810360608401526116db8188611358565b905082810360808401526116ef8187611358565b905082810360a08401526117038186611358565b9150508260c083015298975050505050505050565b600181811c9082168061172c57607f821691505b60208210810361174c57634e487b7160e01b600052602260045260246000fd5b50919050565b601f821115610585576000816000526020600020601f850160051c8101602086101561177b5750805b601f850160051c820191505b8181101561179a57828155600101611787565b505050505050565b815167ffffffffffffffff8111156117bc576117bc611489565b6117d0816117ca8454611718565b84611752565b602080601f83116001811461180557600084156117ed5750858301515b600019600386901b1c1916600185901b17855561179a565b600085815260208120601f198616915b8281101561183457888601518255948401946001909101908401611815565b50858210156118525787850151600019600388901b60f8161c191681555b5050505050600190811b01905550565b60008351611874818460208801611334565b835190830190611888818360208801611334565b01949350505050565b6000600182016118b157634e487b7160e01b600052601160045260246000fd5b5060010190565b60006001600160a01b038087168352808616602084015250836040830152608060608301526118ea6080830184611358565b9695505050505050565b60006020828403121561190657600080fd5b81516106a98161130156fea264697066735822122082b8edd7b3070cf0404b08b59a1691b45ba4f04f30104122ecb1d3bc8f6501da64736f6c63430008180033",
  "linkReferences": {},
  "deployedLinkReferences": {}
}