{
  "_format": "hh-sol-artifact-1",
  "contractName": "SupplyChainMGMT",
  "sourceName": "contracts/SupplyChainMgmt.sol",
  "abi": [
    {
      "inputs": [
        {
          "internalType": "address",
          "name": "cartonNFTContract",
          "type": "address"
        }
      ],
      "stateMutability": "nonpayable",
      "type": "constructor"
    },
    {
      "inputs": [],
      "name": "AccessControlBadConfirmation",
      "type": "error"
    },
    {
      "inputs": [
        {
          "internalType": "address",
          "name": "account",
          "type": "address"
        },
        {
          "internalType": "bytes32",
          "name": "neededRole",
          "type": "bytes32"
        }
      ],
      "name": "AccessControlUnauthorizedAccount",
      "type": "error"
    },
    {
      "anonymous": false,
      "inputs": [
        {
          "indexed": false,
          "internalType": "string",
          "name": "name",
          "type": "string"
        },
        {
          "indexed": false,
          "internalType": "string",
          "name": "location",
          "type": "string"
        }
      ],
      "name": "AddedCustomer",
      "type": "event"
    },
    {
      "anonymous": false,
      "inputs": [
        {
          "indexed": false,
          "internalType": "string",
          "name": "name",
          "type": "string"
        },
        {
          "indexed": false,
          "internalType": "string",
          "name": "location",
          "type": "string"
        }
      ],
      "name": "AddedSupplier",
      "type": "event"
    },
    {
      "anonymous": false,
      "inputs": [
        {
          "indexed": false,
          "internalType": "string",
          "name": "name",
          "type": "string"
        },
        {
          "indexed": false,
          "internalType": "string",
          "name": "licensePlateNo",
          "type": "string"
        }
      ],
      "name": "AddedTransporter",
      "type": "event"
    },
    {
      "anonymous": false,
      "inputs": [
        {
          "indexed": false,
          "internalType": "string",
          "name": "product",
          "type": "string"
        },
        {
          "indexed": false,
          "internalType": "uint256",
          "name": "supplierId",
          "type": "uint256"
        },
        {
          "indexed": false,
          "internalType": "uint256",
          "name": "quantity",
          "type": "uint256"
        }
      ],
      "name": "RaisedRequest",
      "type": "event"
    },
    {
      "anonymous": false,
      "inputs": [
        {
          "indexed": false,
          "internalType": "uint256",
          "name": "requestId",
          "type": "uint256"
        },
        {
          "indexed": false,
          "internalType": "string",
          "name": "requestStatus",
          "type": "string"
        }
      ],
      "name": "RequestReviewed",
      "type": "event"
    },
    {
      "anonymous": false,
      "inputs": [
        {
          "indexed": true,
          "internalType": "bytes32",
          "name": "role",
          "type": "bytes32"
        },
        {
          "indexed": true,
          "internalType": "bytes32",
          "name": "previousAdminRole",
          "type": "bytes32"
        },
        {
          "indexed": true,
          "internalType": "bytes32",
          "name": "newAdminRole",
          "type": "bytes32"
        }
      ],
      "name": "RoleAdminChanged",
      "type": "event"
    },
    {
      "anonymous": false,
      "inputs": [
        {
          "indexed": true,
          "internalType": "bytes32",
          "name": "role",
          "type": "bytes32"
        },
        {
          "indexed": true,
          "internalType": "address",
          "name": "account",
          "type": "address"
        },
        {
          "indexed": true,
          "internalType": "address",
          "name": "sender",
          "type": "address"
        }
      ],
      "name": "RoleGranted",
      "type": "event"
    },
    {
      "anonymous": false,
      "inputs": [
        {
          "indexed": true,
          "internalType": "bytes32",
          "name": "role",
          "type": "bytes32"
        },
        {
          "indexed": true,
          "internalType": "address",
          "name": "account",
          "type": "address"
        },
        {
          "indexed": true,
          "internalType": "address",
          "name": "sender",
          "type": "address"
        }
      ],
      "name": "RoleRevoked",
      "type": "event"
    },
    {
      "inputs": [],
      "name": "CUSTOMER_ROLE",
      "outputs": [
        {
          "internalType": "bytes32",
          "name": "",
          "type": "bytes32"
        }
      ],
      "stateMutability": "view",
      "type": "function"
    },
    {
      "inputs": [],
      "name": "DEFAULT_ADMIN_ROLE",
      "outputs": [
        {
          "internalType": "bytes32",
          "name": "",
          "type": "bytes32"
        }
      ],
      "stateMutability": "view",
      "type": "function"
    },
    {
      "inputs": [],
      "name": "SUPPLIER_ROLE",
      "outputs": [
        {
          "internalType": "bytes32",
          "name": "",
          "type": "bytes32"
        }
      ],
      "stateMutability": "view",
      "type": "function"
    },
    {
      "inputs": [],
      "name": "TRANSPORTER_ROLE",
      "outputs": [
        {
          "internalType": "bytes32",
          "name": "",
          "type": "bytes32"
        }
      ],
      "stateMutability": "view",
      "type": "function"
    },
    {
      "inputs": [
        {
          "internalType": "string",
          "name": "_name",
          "type": "string"
        },
        {
          "internalType": "string",
          "name": "_location",
          "type": "string"
        }
      ],
      "name": "addCustomer",
      "outputs": [],
      "stateMutability": "nonpayable",
      "type": "function"
    },
    {
      "inputs": [
        {
          "internalType": "string",
          "name": "_name",
          "type": "string"
        },
        {
          "internalType": "string",
          "name": "_location",
          "type": "string"
        }
      ],
      "name": "addSupplier",
      "outputs": [],
      "stateMutability": "nonpayable",
      "type": "function"
    },
    {
      "inputs": [
        {
          "internalType": "string",
          "name": "_name",
          "type": "string"
        },
        {
          "internalType": "string",
          "name": "_licensePlateNo",
          "type": "string"
        }
      ],
      "name": "addTransporter",
      "outputs": [],
      "stateMutability": "nonpayable",
      "type": "function"
    },
    {
      "inputs": [],
      "name": "getAllCustomers",
      "outputs": [
        {
          "components": [
            {
              "internalType": "uint256",
              "name": "customerId",
              "type": "uint256"
            },
            {
              "internalType": "string",
              "name": "name",
              "type": "string"
            },
            {
              "internalType": "address",
              "name": "walletAddress",
              "type": "address"
            },
            {
              "internalType": "string",
              "name": "location",
              "type": "string"
            }
          ],
          "internalType": "struct SupplyChainMGMT.Customer[]",
          "name": "",
          "type": "tuple[]"
        }
      ],
      "stateMutability": "view",
      "type": "function"
    },
    {
      "inputs": [],
      "name": "getAllRequestsForSupplier",
      "outputs": [
        {
          "components": [
            {
              "internalType": "uint256",
              "name": "requestId",
              "type": "uint256"
            },
            {
              "internalType": "string",
              "name": "product",
              "type": "string"
            },
            {
              "internalType": "uint256",
              "name": "supplierId",
              "type": "uint256"
            },
            {
              "internalType": "string",
              "name": "supplierAddress",
              "type": "string"
            },
            {
              "internalType": "string",
              "name": "customerAddress",
              "type": "string"
            },
            {
              "internalType": "uint256",
              "name": "quantity",
              "type": "uint256"
            },
            {
              "internalType": "string",
              "name": "status",
              "type": "string"
            }
          ],
          "internalType": "struct SupplyChainMGMT.Request[]",
          "name": "",
          "type": "tuple[]"
        }
      ],
      "stateMutability": "view",
      "type": "function"
    },
    {
      "inputs": [],
      "name": "getAllSuppliers",
      "outputs": [
        {
          "components": [
            {
              "internalType": "uint256",
              "name": "supplierId",
              "type": "uint256"
            },
            {
              "internalType": "string",
              "name": "name",
              "type": "string"
            },
            {
              "internalType": "address",
              "name": "walletAddress",
              "type": "address"
            },
            {
              "internalType": "string",
              "name": "location",
              "type": "string"
            }
          ],
          "internalType": "struct SupplyChainMGMT.Supplier[]",
          "name": "",
          "type": "tuple[]"
        }
      ],
      "stateMutability": "view",
      "type": "function"
    },
    {
      "inputs": [],
      "name": "getAllTransporters",
      "outputs": [
        {
          "components": [
            {
              "internalType": "uint256",
              "name": "transporterId",
              "type": "uint256"
            },
            {
              "internalType": "string",
              "name": "name",
              "type": "string"
            },
            {
              "internalType": "address",
              "name": "walletAddress",
              "type": "address"
            },
            {
              "internalType": "string",
              "name": "licensePlateNo",
              "type": "string"
            }
          ],
          "internalType": "struct SupplyChainMGMT.Transporter[]",
          "name": "",
          "type": "tuple[]"
        }
      ],
      "stateMutability": "view",
      "type": "function"
    },
    {
      "inputs": [],
      "name": "getRole",
      "outputs": [
        {
          "internalType": "string",
          "name": "",
          "type": "string"
        }
      ],
      "stateMutability": "view",
      "type": "function"
    },
    {
      "inputs": [
        {
          "internalType": "bytes32",
          "name": "role",
          "type": "bytes32"
        }
      ],
      "name": "getRoleAdmin",
      "outputs": [
        {
          "internalType": "bytes32",
          "name": "",
          "type": "bytes32"
        }
      ],
      "stateMutability": "view",
      "type": "function"
    },
    {
      "inputs": [
        {
          "internalType": "bytes32",
          "name": "role",
          "type": "bytes32"
        },
        {
          "internalType": "address",
          "name": "account",
          "type": "address"
        }
      ],
      "name": "grantRole",
      "outputs": [],
      "stateMutability": "nonpayable",
      "type": "function"
    },
    {
      "inputs": [
        {
          "internalType": "bytes32",
          "name": "role",
          "type": "bytes32"
        },
        {
          "internalType": "address",
          "name": "account",
          "type": "address"
        }
      ],
      "name": "hasRole",
      "outputs": [
        {
          "internalType": "bool",
          "name": "",
          "type": "bool"
        }
      ],
      "stateMutability": "view",
      "type": "function"
    },
    {
      "inputs": [],
      "name": "launch",
      "outputs": [],
      "stateMutability": "nonpayable",
      "type": "function"
    },
    {
      "inputs": [
        {
          "internalType": "bytes32",
          "name": "role",
          "type": "bytes32"
        },
        {
          "internalType": "address",
          "name": "callerConfirmation",
          "type": "address"
        }
      ],
      "name": "renounceRole",
      "outputs": [],
      "stateMutability": "nonpayable",
      "type": "function"
    },
    {
      "inputs": [
        {
          "internalType": "uint256",
          "name": "_supplierId",
          "type": "uint256"
        },
        {
          "internalType": "string",
          "name": "_product",
          "type": "string"
        },
        {
          "internalType": "uint256",
          "name": "_quantity",
          "type": "uint256"
        }
      ],
      "name": "requestSupplier",
      "outputs": [],
      "stateMutability": "nonpayable",
      "type": "function"
    },
    {
      "inputs": [
        {
          "internalType": "uint256",
          "name": "_requestId",
          "type": "uint256"
        },
        {
          "internalType": "string",
          "name": "_action",
          "type": "string"
        }
      ],
      "name": "reviewRequest",
      "outputs": [],
      "stateMutability": "nonpayable",
      "type": "function"
    },
    {
      "inputs": [
        {
          "internalType": "bytes32",
          "name": "role",
          "type": "bytes32"
        },
        {
          "internalType": "address",
          "name": "account",
          "type": "address"
        }
      ],
      "name": "revokeRole",
      "outputs": [],
      "stateMutability": "nonpayable",
      "type": "function"
    },
    {
      "inputs": [
        {
          "internalType": "bytes4",
          "name": "interfaceId",
          "type": "bytes4"
        }
      ],
      "name": "supportsInterface",
      "outputs": [
        {
          "internalType": "bool",
          "name": "",
          "type": "bool"
        }
      ],
      "stateMutability": "view",
      "type": "function"
    },
    {
      "inputs": [],
      "name": "verifyCustomer",
      "outputs": [
        {
          "internalType": "bool",
          "name": "",
          "type": "bool"
        }
      ],
      "stateMutability": "view",
      "type": "function"
    },
    {
      "inputs": [],
      "name": "verifySupplier",
      "outputs": [
        {
          "internalType": "bool",
          "name": "",
          "type": "bool"
        }
      ],
      "stateMutability": "view",
      "type": "function"
    },
    {
      "inputs": [],
      "name": "verifyTransporter",
      "outputs": [
        {
          "internalType": "bool",
          "name": "",
          "type": "bool"
        }
      ],
      "stateMutability": "view",
      "type": "function"
    }
  ],
  "bytecode": "0x60806040523480156200001157600080fd5b50604051620025cd380380620025cd833981016040819052620000349162000085565b600180546001600160a01b0319166001600160a01b03831617905560408051808201909152600881526734b3b734ba34b7b760c11b60208201526002906200007d90826200015e565b50506200022a565b6000602082840312156200009857600080fd5b81516001600160a01b0381168114620000b057600080fd5b9392505050565b634e487b7160e01b600052604160045260246000fd5b600181811c90821680620000e257607f821691505b6020821081036200010357634e487b7160e01b600052602260045260246000fd5b50919050565b601f82111562000159576000816000526020600020601f850160051c81016020861015620001345750805b601f850160051c820191505b81811015620001555782815560010162000140565b5050505b505050565b81516001600160401b038111156200017a576200017a620000b7565b62000192816200018b8454620000cd565b8462000109565b602080601f831160018114620001ca5760008415620001b15750858301515b600019600386901b1c1916600185901b17855562000155565b600085815260208120601f198616915b82811015620001fb57888601518255948401946001909101908401620001da565b50858210156200021a5787850151600019600388901b60f8161c191681555b5050505050600190811b01905550565b612393806200023a6000396000f3fe608060405234801561001057600080fd5b50600436106101985760003560e01c80637dbd250b116100e3578063b5ab60571161008c578063d547741f11610066578063d547741f146103fb578063f2fdf52a1461040e578063fde081741461044557600080fd5b8063b5ab60571461039c578063bf595025146103d3578063c76b5e99146103e657600080fd5b8063a217fddf116100bd578063a217fddf14610358578063a29508fc14610360578063b53305dc1461038757600080fd5b80637dbd250b146102d757806391d14854146102ea5780639d2cc09b1461032157600080fd5b80632f2ff15d116101455780634eabbe771161011f5780634eabbe771461028657806377db5719146102ad5780637da67ba8146102c257600080fd5b80632f2ff15d1461024d5780633190abc01461026057806336568abe1461027357600080fd5b80631e85e42c116101765780631e85e42c146101e2578063204d7923146101f5578063248a9ca31461022a57600080fd5b806301339c211461019d57806301ffc9a7146101a75780630e3b6591146101cf575b600080fd5b6101a561045a565b005b6101ba6101b5366004611a95565b61049e565b60405190151581526020015b60405180910390f35b6101a56101dd366004611b81565b610537565b6101a56101f0366004611bd1565b610922565b61021c7f288a15c4a15d470e4cd9cad2f113b91206b520c26dbd3dd74627f0c057baa19c81565b6040519081526020016101c6565b61021c610238366004611c35565b60009081526020819052604090206001015490565b6101a561025b366004611c4e565b610a34565b6101a561026e366004611bd1565b610a5f565b6101a5610281366004611c4e565b610b7b565b61021c7fddaa901e2fe3bda354fe0ede2785152d5c109282a613fe024a056a3e66c41bb381565b6102b5610bcc565b6040516101c69190611d2e565b6102ca610df5565b6040516101c69190611d92565b6101a56102e5366004611bd1565b611017565b6101ba6102f8366004611c4e565b6000918252602082815260408084206001600160a01b0393909316845291905290205460ff1690565b3360009081527fb83fc20350ba75f25d756f71e544454173ccbb7a3913fc189e591f99c82c94ab602052604090205460ff166101ba565b61021c600081565b61021c7fd1ae8bbdabd60d63e418b84f5ad6f9cba90092c9816d7724d85f0d4e4bea2c6081565b61038f611133565b6040516101c69190611de9565b3360009081527fa064441a8c19971a0473d3752b65ad9597aa78193fdfbdc59b8c8b195f9e433d602052604090205460ff166101ba565b6101a56103e1366004611e40565b611355565b6103ee6114c3565b6040516101c69190611e7d565b6101a5610409366004611c4e565b61179f565b3360009081527fbce5fd3347e0dc338dcc0e895534dd4af2740eec95f56cd4ca4b4b2ada357ca0602052604090205460ff166101ba565b61044d6117c4565b6040516101c69190611f5c565b60408051808201909152600881527f6c6966742d6f6666000000000000000000000000000000000000000000000000602082015260029061049b9082611ff9565b50565b60007fffffffff0000000000000000000000000000000000000000000000000000000082167f7965db0b00000000000000000000000000000000000000000000000000000000148061053157507f01ffc9a7000000000000000000000000000000000000000000000000000000007fffffffff000000000000000000000000000000000000000000000000000000008316145b92915050565b33600090815260036020908152604080832054868452600783528184208251608081019093528054835260018101805492959491929184019161057990611f6f565b80601f01602080910402602001604051908101604052809291908181526020018280546105a590611f6f565b80156105f25780601f106105c7576101008083540402835291602001916105f2565b820191906000526020600020905b8154815290600101906020018083116105d557829003601f168201915b505050918352505060028201546001600160a01b0316602082015260038201805460409092019161062290611f6f565b80601f016020809104026020016040519081016040528092919081815260200182805461064e90611f6f565b801561069b5780601f106106705761010080835404028352916020019161069b565b820191906000526020600020905b81548152906001019060200180831161067e57829003601f168201915b50505050508152505090506040518060e00160405280600d548152602001858152602001868152602001826060015181526020016004600085815260200190815260200160002060030180546106f090611f6f565b80601f016020809104026020016040519081016040528092919081815260200182805461071c90611f6f565b80156107695780601f1061073e57610100808354040283529160200191610769565b820191906000526020600020905b81548152906001019060200180831161074c57829003601f168201915b50505091835250506020808201869052604080518082018252600f81527f4177616974696e672052657669657700000000000000000000000000000000008184015292810192909252600d5460009081526009825291909120825181559082015160018201906107d99082611ff9565b5060408201516002820155606082015160038201906107f89082611ff9565b506080820151600482019061080d9082611ff9565b5060a0820151600582015560c0820151600682019061082c9082611ff9565b5050506000858152600860209081526040808320600d5484526009835290832081546001818101845592855292909320835460079093020191825581810190610877908401826120b9565b50600282015481600201556003820181600301908161089691906120b9565b506004818101906108a9908401826120b9565b5060058201548160050155600682018160060190816108c891906120b9565b5050600d8054915060006108db83612194565b91905055507fd892b209f1ec367b7c04690dfab2ceb9717c44ef24c901355912a27f26cc850f848685604051610913939291906121bb565b60405180910390a15050505050565b60408051608081018252600b54808252602080830186815233848601526060840186905260009283526005909152929020815181559151909190600182019061096b9082611ff9565b50604082015160028201805473ffffffffffffffffffffffffffffffffffffffff19166001600160a01b03909216919091179055606082015160038201906109b39082611ff9565b509050506109e17fddaa901e2fe3bda354fe0ede2785152d5c109282a613fe024a056a3e66c41bb3336118ea565b50600b80549060006109f283612194565b91905055507ffb17ad5641218bd9999e73a9ac3e9a9e1591e4f9b2b5d52a22f2265f0537f8c28282604051610a289291906121e0565b60405180910390a15050565b600082815260208190526040902060010154610a4f81611994565b610a5983836118ea565b50505050565b60408051608081018252600a548082526020808301868152338486015260608401869052600092835260049091529290208151815591519091906001820190610aa89082611ff9565b50604082015160028201805473ffffffffffffffffffffffffffffffffffffffff19166001600160a01b0390921691909117905560608201516003820190610af09082611ff9565b5050600a5433600081815260036020526040902091909155610b3491507f288a15c4a15d470e4cd9cad2f113b91206b520c26dbd3dd74627f0c057baa19c906118ea565b50600a8054906000610b4583612194565b91905055507f678ebf8360eb6ac4cf2d717c25e8fc4706a46e4690141674a37b730eff7f4d508282604051610a289291906121e0565b6001600160a01b0381163314610bbd576040517f6697b23200000000000000000000000000000000000000000000000000000000815260040160405180910390fd5b610bc7828261199e565b505050565b600b5460609060008167ffffffffffffffff811115610bed57610bed611ade565b604051908082528060200260200182016040528015610c5257816020015b610c3f6040518060800160405280600081526020016060815260200160006001600160a01b03168152602001606081525090565b815260200190600190039081610c0b5790505b50905060005b82811015610dee5760006005600083815260200190815260200160002060405180608001604052908160008201548152602001600182018054610c9a90611f6f565b80601f0160208091040260200160405190810160405280929190818152602001828054610cc690611f6f565b8015610d135780601f10610ce857610100808354040283529160200191610d13565b820191906000526020600020905b815481529060010190602001808311610cf657829003601f168201915b505050918352505060028201546001600160a01b03166020820152600382018054604090920191610d4390611f6f565b80601f0160208091040260200160405190810160405280929190818152602001828054610d6f90611f6f565b8015610dbc5780601f10610d9157610100808354040283529160200191610dbc565b820191906000526020600020905b815481529060010190602001808311610d9f57829003601f168201915b505050505081525050905080838381518110610dda57610dda612205565b602090810291909101015250600101610c58565b5092915050565b600a5460609060008167ffffffffffffffff811115610e1657610e16611ade565b604051908082528060200260200182016040528015610e7b57816020015b610e686040518060800160405280600081526020016060815260200160006001600160a01b03168152602001606081525090565b815260200190600190039081610e345790505b50905060005b82811015610dee5760006004600083815260200190815260200160002060405180608001604052908160008201548152602001600182018054610ec390611f6f565b80601f0160208091040260200160405190810160405280929190818152602001828054610eef90611f6f565b8015610f3c5780601f10610f1157610100808354040283529160200191610f3c565b820191906000526020600020905b815481529060010190602001808311610f1f57829003601f168201915b505050918352505060028201546001600160a01b03166020820152600382018054604090920191610f6c90611f6f565b80601f0160208091040260200160405190810160405280929190818152602001828054610f9890611f6f565b8015610fe55780601f10610fba57610100808354040283529160200191610fe5565b820191906000526020600020905b815481529060010190602001808311610fc857829003601f168201915b50505050508152505090508083838151811061100357611003612205565b602090810291909101015250600101610e81565b60408051608081018252600c5480825260208083018681523384860152606084018690526000928352600790915292902081518155915190919060018201906110609082611ff9565b50604082015160028201805473ffffffffffffffffffffffffffffffffffffffff19166001600160a01b03909216919091179055606082015160038201906110a89082611ff9565b5050600c54336000818152600660205260409020919091556110ec91507fd1ae8bbdabd60d63e418b84f5ad6f9cba90092c9816d7724d85f0d4e4bea2c60906118ea565b50600c80549060006110fd83612194565b91905055507f5ba0c5b367a5f6a4ea417dd5d845bcc9f6feadc046dfd4f9d02bf40c45799b298282604051610a289291906121e0565b600c5460609060008167ffffffffffffffff81111561115457611154611ade565b6040519080825280602002602001820160405280156111b957816020015b6111a66040518060800160405280600081526020016060815260200160006001600160a01b03168152602001606081525090565b8152602001906001900390816111725790505b50905060005b82811015610dee576000600760008381526020019081526020016000206040518060800160405290816000820154815260200160018201805461120190611f6f565b80601f016020809104026020016040519081016040528092919081815260200182805461122d90611f6f565b801561127a5780601f1061124f5761010080835404028352916020019161127a565b820191906000526020600020905b81548152906001019060200180831161125d57829003601f168201915b505050918352505060028201546001600160a01b031660208201526003820180546040909201916112aa90611f6f565b80601f01602080910402602001604051908101604052809291908181526020018280546112d690611f6f565b80156113235780601f106112f857610100808354040283529160200191611323565b820191906000526020600020905b81548152906001019060200180831161130657829003601f168201915b50505050508152505090508083838151811061134157611341612205565b6020908102919091010152506001016111bf565b6000828152600960205260409020600681016113718382611ff9565b506040517f4163636570740000000000000000000000000000000000000000000000000000602082015260260160405160208183030381529060405280519060200120826040516020016113c5919061221b565b6040516020818303038152906040528051906020012003611482576001805460058301546040517feb5b92230000000000000000000000000000000000000000000000000000000081526001600160a01b039092169263eb5b92239261143d92339287019160038801906004808a01918391016122b4565b6020604051808303816000875af115801561145c573d6000803e3d6000fd5b505050506040513d601f19601f820116820180604052508101906114809190612323565b505b7f517897922d0c8db66e809dcc90dd0213b7d1d4111b258eaa39e6ca642be429db83826006016040516114b692919061233c565b60405180910390a1505050565b3360009081526006602090815260408083205480845260088352818420805483518186028101860190945280845260609592949192909184015b8282101561179557838290600052602060002090600702016040518060e00160405290816000820154815260200160018201805461153a90611f6f565b80601f016020809104026020016040519081016040528092919081815260200182805461156690611f6f565b80156115b35780601f10611588576101008083540402835291602001916115b3565b820191906000526020600020905b81548152906001019060200180831161159657829003601f168201915b50505050508152602001600282015481526020016003820180546115d690611f6f565b80601f016020809104026020016040519081016040528092919081815260200182805461160290611f6f565b801561164f5780601f106116245761010080835404028352916020019161164f565b820191906000526020600020905b81548152906001019060200180831161163257829003601f168201915b5050505050815260200160048201805461166890611f6f565b80601f016020809104026020016040519081016040528092919081815260200182805461169490611f6f565b80156116e15780601f106116b6576101008083540402835291602001916116e1565b820191906000526020600020905b8154815290600101906020018083116116c457829003601f168201915b505050505081526020016005820154815260200160068201805461170490611f6f565b80601f016020809104026020016040519081016040528092919081815260200182805461173090611f6f565b801561177d5780601f106117525761010080835404028352916020019161177d565b820191906000526020600020905b81548152906001019060200180831161176057829003601f168201915b505050505081525050815260200190600101906114fd565b5050505091505090565b6000828152602081905260409020600101546117ba81611994565b610a59838361199e565b3360008181527fa064441a8c19971a0473d3752b65ad9597aa78193fdfbdc59b8c8b195f9e433d60205260409020546060919060ff161561183857505060408051808201909152600881527f435553544f4d4552000000000000000000000000000000000000000000000000602082015290565b6001600160a01b03811660009081527fbce5fd3347e0dc338dcc0e895534dd4af2740eec95f56cd4ca4b4b2ada357ca0602052604090205460ff16156118b157505060408051808201909152600b81527f5452414e53504f52544552000000000000000000000000000000000000000000602082015290565b505060408051808201909152600881527f535550504c494552000000000000000000000000000000000000000000000000602082015290565b6000828152602081815260408083206001600160a01b038516845290915281205460ff1661198c576000838152602081815260408083206001600160a01b03861684529091529020805460ff191660011790556119443390565b6001600160a01b0316826001600160a01b0316847f2f8788117e7eff1d82e926ec794901d17c78024a50270940304540a733656f0d60405160405180910390a4506001610531565b506000610531565b61049b8133611a21565b6000828152602081815260408083206001600160a01b038516845290915281205460ff161561198c576000838152602081815260408083206001600160a01b0386168085529252808320805460ff1916905551339286917ff6391f5c32d9c69d2a47ea670b442974b53935d1edc7fd64eb21e047a839171b9190a4506001610531565b6000828152602081815260408083206001600160a01b038516845290915290205460ff16611a91576040517fe2517d3f0000000000000000000000000000000000000000000000000000000081526001600160a01b03821660048201526024810183905260440160405180910390fd5b5050565b600060208284031215611aa757600080fd5b81357fffffffff0000000000000000000000000000000000000000000000000000000081168114611ad757600080fd5b9392505050565b634e487b7160e01b600052604160045260246000fd5b600082601f830112611b0557600080fd5b813567ffffffffffffffff80821115611b2057611b20611ade565b604051601f8301601f19908116603f01168101908282118183101715611b4857611b48611ade565b81604052838152866020858801011115611b6157600080fd5b836020870160208301376000602085830101528094505050505092915050565b600080600060608486031215611b9657600080fd5b83359250602084013567ffffffffffffffff811115611bb457600080fd5b611bc086828701611af4565b925050604084013590509250925092565b60008060408385031215611be457600080fd5b823567ffffffffffffffff80821115611bfc57600080fd5b611c0886838701611af4565b93506020850135915080821115611c1e57600080fd5b50611c2b85828601611af4565b9150509250929050565b600060208284031215611c4757600080fd5b5035919050565b60008060408385031215611c6157600080fd5b8235915060208301356001600160a01b0381168114611c7f57600080fd5b809150509250929050565b60005b83811015611ca5578181015183820152602001611c8d565b50506000910152565b60008151808452611cc6816020860160208601611c8a565b601f01601f19169290920160200192915050565b805182526000602082015160806020850152611cf96080850182611cae565b90506001600160a01b03604084015116604085015260608301518482036060860152611d258282611cae565b95945050505050565b600060208083016020845280855180835260408601915060408160051b87010192506020870160005b82811015611d8557603f19888603018452611d73858351611cda565b94509285019290850190600101611d57565b5092979650505050505050565b600060208083016020845280855180835260408601915060408160051b87010192506020870160005b82811015611d8557603f19888603018452611dd7858351611cda565b94509285019290850190600101611dbb565b600060208083016020845280855180835260408601915060408160051b87010192506020870160005b82811015611d8557603f19888603018452611e2e858351611cda565b94509285019290850190600101611e12565b60008060408385031215611e5357600080fd5b82359150602083013567ffffffffffffffff811115611e7157600080fd5b611c2b85828601611af4565b600060208083018184528085518083526040925060408601915060408160051b87010184880160005b83811015611f4e57603f19898403018552815160e08151855288820151818a870152611ed482870182611cae565b915050878201518886015260608083015186830382880152611ef68382611cae565b9250505060808083015186830382880152611f118382611cae565b9250505060a080830151818701525060c08083015192508582038187015250611f3a8183611cae565b968901969450505090860190600101611ea6565b509098975050505050505050565b602081526000611ad76020830184611cae565b600181811c90821680611f8357607f821691505b602082108103611fa357634e487b7160e01b600052602260045260246000fd5b50919050565b601f821115610bc7576000816000526020600020601f850160051c81016020861015611fd25750805b601f850160051c820191505b81811015611ff157828155600101611fde565b505050505050565b815167ffffffffffffffff81111561201357612013611ade565b612027816120218454611f6f565b84611fa9565b602080601f83116001811461205c57600084156120445750858301515b600019600386901b1c1916600185901b178555611ff1565b600085815260208120601f198616915b8281101561208b5788860151825594840194600190910190840161206c565b50858210156120a95787850151600019600388901b60f8161c191681555b5050505050600190811b01905550565b8181036120c4575050565b6120ce8254611f6f565b67ffffffffffffffff8111156120e6576120e6611ade565b6120f4816120218454611f6f565b6000601f82116001811461212857600083156121105750848201545b600019600385901b1c1916600184901b17845561218d565b600085815260209020601f19841690600086815260209020845b838110156121625782860154825560019586019590910190602001612142565b50858310156121805781850154600019600388901b60f8161c191681555b50505060018360011b0184555b5050505050565b6000600182016121b457634e487b7160e01b600052601160045260246000fd5b5060010190565b6060815260006121ce6060830186611cae565b60208301949094525060400152919050565b6040815260006121f36040830185611cae565b8281036020840152611d258185611cae565b634e487b7160e01b600052603260045260246000fd5b6000825161222d818460208701611c8a565b9190910192915050565b6000815461224481611f6f565b808552602060018381168015612261576001811461227b576122a9565b60ff1985168884015283151560051b8801830195506122a9565b866000528260002060005b858110156122a15781548a8201860152908301908401612286565b890184019650505b505050505092915050565b6001600160a01b038716815260c0602082015260006122d660c0830188612237565b86604084015282810360608401526122ee8187612237565b905082810360808401526123028186612237565b905082810360a08401526123168185612237565b9998505050505050505050565b60006020828403121561233557600080fd5b5051919050565b8281526040602082015260006123556040830184612237565b94935050505056fea26469706673582212204d6fb1f272e3e0f37fb9359ee9f3dc2ceca572c34d4260ab5c56709b518024fa64736f6c63430008180033",
  "linkReferences": {},
  "deployedLinkReferences": {}
}